S01D00005046492D6D6F646275735F6D61737465722D4C45442E7372656384
S11300000C9456000C9468000C9468000C946800DE
S11300100C9468000C9468000C9468000C946800BC
S11300200C9468000C9468000C9468000C946800AC
S11300300C9468000C9468000C9468000C9468009C
S11300400C9468000C946A000C9468000C9468008A
S11300500C9468000C9468000C9468000C9468007C
S11300600C9468000C9468000C9468000C9468006C
S11300700C9468000C9468000C9468000C9468005C
S11300800C9468000C9468000C9468000C9468004C
S11300900C9468000C9468000C9468000C9468003C
S11300A00C9468000C9468000C94680011241FBE22
S11300B0CFEFDAE0DEBFCDBF21E0A0E0B1E001C0C8
S11300C01D92A230B207E1F70E940C010C941201B8
S11300D00C9400001F920F920FB60F9211248F936D
S11300E081E08093010188B1805888B98F910F9085
S11300F00FBE0F901F9018958230D9F028F48823F2
S113010049F0813071F00895843019F1D0F08530D0
S113011041F108951092CF001092D0001092D200B5
S113012008958FEF8093CF001092D0001092D200E8
S113013008951092CF008FEF8093D0001092D200D8
S113014008951092CF001092D0008FEF8093D200C8
S113015008958FEF8093CF008093D0008093D200D6
S1130160089580910101882379F080910001811123
S11301701FC01092010181E0809300011092CF0012
S11301801092D0001092D200809101018823A1F036
S113019080910001882381F01092010110920001E6
S11301A08FEF8093CF001092D0001092D200089568
S11301B0809101018111F0CF0895E1E8F0E088E039
S11301C08083808184608083EFE6F0E080818260B8
S11301D0808388E09DE390938900809388007894DD
S11301E0089589E08093C20083EA8093C00084E08C
S11301F08093C1008EEF8093D1001092CF001092B3
S1130200D0001092D20008950E94DD000E94F100F7
S11302103F9A269A579A08950E94040180E00E940A
S10B02207C00FCCFF894FFCF31
S9030000FC
